{
  "_format": "hh-sol-artifact-1",
  "contractName": "Marketplace",
  "sourceName": "contracts/MarketPlace.sol",
  "abi": [
    {
      "anonymous": false,
      "inputs": [
        {
          "indexed": true,
          "internalType": "uint256",
          "name": "id",
          "type": "uint256"
        },
        {
          "indexed": false,
          "internalType": "string",
          "name": "name",
          "type": "string"
        },
        {
          "indexed": false,
          "internalType": "uint256",
          "name": "price",
          "type": "uint256"
        },
        {
          "indexed": true,
          "internalType": "address",
          "name": "seller",
          "type": "address"
        }
      ],
      "name": "ProductAdded",
      "type": "event"
    },
    {
      "anonymous": false,
      "inputs": [
        {
          "indexed": true,
          "internalType": "uint256",
          "name": "id",
          "type": "uint256"
        },
        {
          "indexed": false,
          "internalType": "string",
          "name": "name",
          "type": "string"
        },
        {
          "indexed": false,
          "internalType": "uint256",
          "name": "price",
          "type": "uint256"
        },
        {
          "indexed": true,
          "internalType": "address",
          "name": "seller",
          "type": "address"
        },
        {
          "indexed": true,
          "internalType": "address",
          "name": "buyer",
          "type": "address"
        }
      ],
      "name": "ProductPurchased",
      "type": "event"
    },
    {
      "inputs": [
        {
          "internalType": "string",
          "name": "name",
          "type": "string"
        },
        {
          "internalType": "uint256",
          "name": "price",
          "type": "uint256"
        }
      ],
      "name": "addProduct",
      "outputs": [],
      "stateMutability": "nonpayable",
      "type": "function"
    },
    {
      "inputs": [],
      "name": "productCount",
      "outputs": [
        {
          "internalType": "uint256",
          "name": "",
          "type": "uint256"
        }
      ],
      "stateMutability": "view",
      "type": "function"
    },
    {
      "inputs": [
        {
          "internalType": "uint256",
          "name": "",
          "type": "uint256"
        }
      ],
      "name": "products",
      "outputs": [
        {
          "internalType": "uint256",
          "name": "id",
          "type": "uint256"
        },
        {
          "internalType": "string",
          "name": "name",
          "type": "string"
        },
        {
          "internalType": "uint256",
          "name": "price",
          "type": "uint256"
        },
        {
          "internalType": "address",
          "name": "seller",
          "type": "address"
        },
        {
          "internalType": "bool",
          "name": "isAvailable",
          "type": "bool"
        }
      ],
      "stateMutability": "view",
      "type": "function"
    },
    {
      "inputs": [
        {
          "internalType": "uint256",
          "name": "productId",
          "type": "uint256"
        }
      ],
      "name": "purchaseProduct",
      "outputs": [],
      "stateMutability": "payable",
      "type": "function"
    },
    {
      "inputs": [],
      "name": "withdraw",
      "outputs": [],
      "stateMutability": "nonpayable",
      "type": "function"
    }
  ],
  "bytecode": "0x608060405234801561001057600080fd5b50610ea3806100206000396000f3fe60806040526004361061004a5760003560e01c806338e76a031461004f5780633ccfd60b1461006b5780637acc0b2014610082578063b15247d9146100c3578063e0f6ef87146100ec575b600080fd5b610069600480360381019061006491906108fc565b610117565b005b34801561007757600080fd5b50610080610428565b005b34801561008e57600080fd5b506100a960048036038101906100a491906108fc565b6104ed565b6040516100ba959493929190610bdc565b60405180910390f35b3480156100cf57600080fd5b506100ea60048036038101906100e591906108a8565b6105d8565b005b3480156100f857600080fd5b5061010161077a565b60405161010e9190610bc1565b60405180910390f35b60008111801561012957506000548111155b610168576040517f08c379a000000000000000000000000000000000000000000000000000000000815260040161015f90610ba1565b60405180910390fd5b6000600160008381526020019081526020016000206040518060a0016040529081600082015481526020016001820180546101a290610d3d565b80601f01602080910402602001604051908101604052809291908181526020018280546101ce90610d3d565b801561021b5780601f106101f05761010080835404028352916020019161021b565b820191906000526020600020905b8154815290600101906020018083116101fe57829003601f168201915b50505050508152602001600282015481526020016003820160009054906101000a900473ffffffffffffffffffffffffffffffffffffffff1673ffffffffffffffffffffffffffffffffffffffff1673ffffffffffffffffffffffffffffffffffffffff1681526020016003820160149054906101000a900460ff161515151581525050905080608001516102e5576040517f08c379a00000000000000000000000000000000000000000000000000000000081526004016102dc90610b61565b60405180910390fd5b806040015134101561032c576040517f08c379a000000000000000000000000000000000000000000000000000000000815260040161032390610b81565b60405180910390fd5b6000816060015190508073ffffffffffffffffffffffffffffffffffffffff166108fc83604001519081150290604051600060405180830381858888f1935050505015801561037f573d6000803e3d6000fd5b503373ffffffffffffffffffffffffffffffffffffffff16826060015173ffffffffffffffffffffffffffffffffffffffff16847f0ec3a2a7db8265630b6b34629ebe9900056ed7ebc18bebe60aa2b33fa345a594856020015186604001516040516103ec929190610af1565b60405180910390a460006001600085815260200190815260200160002060030160146101000a81548160ff021916908315150217905550505050565b610430610780565b73ffffffffffffffffffffffffffffffffffffffff163373ffffffffffffffffffffffffffffffffffffffff161461049d576040517f08c379a000000000000000000000000000000000000000000000000000000000815260040161049490610b41565b60405180910390fd5b6104a5610780565b73ffffffffffffffffffffffffffffffffffffffff166108fc479081150290604051600060405180830381858888f193505050501580156104ea573d6000803e3d6000fd5b50565b600160205280600052604060002060009150905080600001549080600101805461051690610d3d565b80601f016020809104026020016040519081016040528092919081815260200182805461054290610d3d565b801561058f5780601f106105645761010080835404028352916020019161058f565b820191906000526020600020905b81548152906001019060200180831161057257829003601f168201915b5050505050908060020154908060030160009054906101000a900473ffffffffffffffffffffffffffffffffffffffff16908060030160149054906101000a900460ff16905085565b6000811161061b576040517f08c379a000000000000000000000000000000000000000000000000000000000815260040161061290610b21565b60405180910390fd5b60008081548092919061062d90610d6f565b91905055506040518060a0016040528060005481526020018381526020018281526020013373ffffffffffffffffffffffffffffffffffffffff1681526020016001151581525060016000805481526020019081526020016000206000820151816000015560208201518160010190805190602001906106ae929190610788565b506040820151816002015560608201518160030160006101000a81548173ffffffffffffffffffffffffffffffffffffffff021916908373ffffffffffffffffffffffffffffffffffffffff16021790555060808201518160030160146101000a81548160ff0219169083151502179055509050503373ffffffffffffffffffffffffffffffffffffffff166000547f52402cafb2ecec722b103e8f203f83362148c168659dc96678c2c6850d12dd9f848460405161076e929190610af1565b60405180910390a35050565b60005481565b600030905090565b82805461079490610d3d565b90600052602060002090601f0160209004810192826107b657600085556107fd565b82601f106107cf57805160ff19168380011785556107fd565b828001600101855582156107fd579182015b828111156107fc5782518255916020019190600101906107e1565b5b50905061080a919061080e565b5090565b5b8082111561082757600081600090555060010161080f565b5090565b600061083e61083984610c67565b610c36565b90508281526020810184848401111561085657600080fd5b610861848285610cfb565b509392505050565b600082601f83011261087a57600080fd5b813561088a84826020860161082b565b91505092915050565b6000813590506108a281610e56565b92915050565b600080604083850312156108bb57600080fd5b600083013567ffffffffffffffff8111156108d557600080fd5b6108e185828601610869565b92505060206108f285828601610893565b9150509250929050565b60006020828403121561090e57600080fd5b600061091c84828501610893565b91505092915050565b61092e81610cb3565b82525050565b61093d81610cc5565b82525050565b600061094e82610c97565b6109588185610ca2565b9350610968818560208601610d0a565b61097181610e45565b840191505092915050565b6000610989601f83610ca2565b91507f5072696365206d7573742062652067726561746572207468616e207a65726f006000830152602082019050919050565b60006109c9602483610ca2565b91507f4f6e6c792074686520636f6e7472616374206f776e65722063616e207769746860008301527f64726177000000000000000000000000000000000000000000000000000000006020830152604082019050919050565b6000610a2f601583610ca2565b91507f50726f64756374206e6f7420617661696c61626c6500000000000000000000006000830152602082019050919050565b6000610a6f601283610ca2565b91507f496e73756666696369656e742066756e647300000000000000000000000000006000830152602082019050919050565b6000610aaf601283610ca2565b91507f496e76616c69642070726f6475637420494400000000000000000000000000006000830152602082019050919050565b610aeb81610cf1565b82525050565b60006040820190508181036000830152610b0b8185610943565b9050610b1a6020830184610ae2565b9392505050565b60006020820190508181036000830152610b3a8161097c565b9050919050565b60006020820190508181036000830152610b5a816109bc565b9050919050565b60006020820190508181036000830152610b7a81610a22565b9050919050565b60006020820190508181036000830152610b9a81610a62565b9050919050565b60006020820190508181036000830152610bba81610aa2565b9050919050565b6000602082019050610bd66000830184610ae2565b92915050565b600060a082019050610bf16000830188610ae2565b8181036020830152610c038187610943565b9050610c126040830186610ae2565b610c1f6060830185610925565b610c2c6080830184610934565b9695505050505050565b6000604051905081810181811067ffffffffffffffff82111715610c5d57610c5c610e16565b5b8060405250919050565b600067ffffffffffffffff821115610c8257610c81610e16565b5b601f19601f8301169050602081019050919050565b600081519050919050565b600082825260208201905092915050565b6000610cbe82610cd1565b9050919050565b60008115159050919050565b600073ffffffffffffffffffffffffffffffffffffffff82169050919050565b6000819050919050565b82818337600083830152505050565b60005b83811015610d28578082015181840152602081019050610d0d565b83811115610d37576000848401525b50505050565b60006002820490506001821680610d5557607f821691505b60208210811415610d6957610d68610de7565b5b50919050565b6000610d7a82610cf1565b91507fffffffffffffffffffffffffffffffffffffffffffffffffffffffffffffffff821415610dad57610dac610db8565b5b600182019050919050565b7f4e487b7100000000000000000000000000000000000000000000000000000000600052601160045260246000fd5b7f4e487b7100000000000000000000000000000000000000000000000000000000600052602260045260246000fd5b7f4e487b7100000000000000000000000000000000000000000000000000000000600052604160045260246000fd5b6000601f19601f8301169050919050565b610e5f81610cf1565b8114610e6a57600080fd5b5056fea2646970667358221220d1841c12407b88738e4e340c19729d3300b509dfad2cd0eb0f9980f6c241685364736f6c63430008000033",
  "linkReferences": {},
  "deployedLinkReferences": {}
}